:020000040800F2
:1000000000080020190800086909000865090008AF
:10001000650900086509000865090008000000007E
:100020000000000000000000000000006909000856
:100030006909000800000000690900086909000852
:1000400069090008690900086909000869090008C8
:1000500069090008690900086909000869090008B8
:1000600069090008690900086909000869090008A8
:100070006909000869090008690900086909000898
:100080006909000869090008690900086909000888
:100090006909000869090008690900086909000878
:1000A0006909000869090008690900086909000868
:1000B0006909000869090008690900086909000858
:1000C0006909000869090008690900086909000848
:1000D0006909000869090008690900086909000838
:1000E0006909000869090008690900086909000828
:1000F0006909000869090008690900086909000818
:100100006909000869090008690900086909000807
:1001100069090008690900086909000869090008F7
:1001200069090008690900086909000869090008E7
:1001300080B500AF00F0D2FD0F484FF0040100F091
:1001400063FD0D484FF0080100F05EFD0A484FF0D6
:10015000100100F059FD08484FF0200100F054FD57
:1001600005484FF0400100F04FFD03484FF4804137
:1001700000F04AFDBD4680BD1810024080B500AFBA
:1001800015484FF003014FF002024FF4007300F0E6
:1001900029FE12484FF4164100F082FE0F484FF03E
:1001A000080100F087FE0D484FF0000100F08CFEC2
:1001B0000A484FF0030100F097FE08484FF0000195
:1001C00000F08AFE05484FF0000100F095FE03485C
:1001D00000F09AFEBD4680BD000801400038014095
:1001E00080B500AF05484FF002014FF000024FF01C
:1001F000C00300F0F7FDBD4680BDC04600100140C1
:1002000080B581B000AF1C484FF4007100F0FCFCD9
:100210001A4800F0C5FF194800F0EEFE174800F03C
:10022000B3FF164800F0AAFE144800F041FF13483F
:1002300000F05EFF114800F009FF10484FF0030185
:1002400000F0D2FF0D4800F0A5FF4FF000033B6027
:1002500003E03B6803F101033B603A68084B9A42B4
:10026000F7DD064800F072FF044800F07BFF07F15D
:100270000407BD4680BDC04618100240002401405E
:100280007F38010080B484B000AFF860B960FB68CB
:100290003B603B68012B0CD03B68022B13D03B68C2
:1002A000002B1AD1BB68072B17DCBB68DBB27B6065
:1002B00016E0BB68012B10DCBB68DBB203F108035E
:1002C000DBB27B600CE0BB68052B06DCBB68DBB2F5
:1002D00003F10A03DBB27B6002E04FF010037B60A6
:1002E0007B68184607F11007BD4680BC7047C046C2
:1002F00080B582B000AF38604FF000037B603B6890
:10030000A3F13003432B00F2708101A252F823F0D5
:10031000710400087B040008850400088F040008AD
:1003200099040008A3040008AD040008B7040008FD
:10033000C1040008CB040008EB050008EB05000829
:10034000EB050008EB050008EB050008EB050008CD
:10035000EB050008210400083104000841040008EE
:100360005104000861040008EB050008EB050008D3
:10037000EB050008EB050008EB050008EB0500089D
:10038000EB050008EB050008EB050008EB0500088D
:10039000EB050008EB050008EB050008EB0500087D
:1003A000EB050008EB050008EB050008EB0500086D
:1003B000EB050008EB050008EB050008EB0500085D
:1003C000EB050008EB050008EB050008EB0500084D
:1003D000EB050008D5040008DF040008E904000864
:1003E000F3040008FD04000807050008650500087F
:1003F000EB0500083B050008EB050008EB050008CD
:10040000EB050008EB050008EB05000811050008E6
:10041000EB050008EB050008C9050008A505000864
:10042000ED4A4FF000031360EC4AED4B1360DCE043
:10043000E94A4FF001031360E84AEA4B1360D4E045
:10044000E54A4FF002031360E44AE74B1360CCE047
:10045000E14A4FF003031360E04AE44B1360C4E049
:10046000DD4A4FF004031360DC4AE14B1360BCE04B
:10047000E04A4FF000031360B7E0DE4A4FF001039B
:100480001360B2E0DB4A4FF002031360ADE0D94ADB
:100490004FF003031360A8E0D64A4FF00403136043
:1004A000A3E0D44A4FF0050313609EE0D14A4FF019
:1004B0000603136099E0CF4A4FF00703136094E0FE
:1004C000CC4A4FF0080313608FE0CA4A4FF009038B
:1004D00013608AE0C74A4FF00A03136085E0C54AFB
:1004E0004FF00B03136080E0C24A4FF00C0313601F
:1004F0007BE0C04A4FF00D03136076E0BD4A4FF039
:100500000E03136071E0BB4A4FF00F0313606CE001
:10051000B24B1968B74B1A684FF0010303FA02F3A4
:100520009BB208464FF002014FF0000200F05AFC67
:10053000B14A4FF06F03136057E0A84B1968AD4BF9
:100540001A684FF0010303FA02F39BB208464FF01A
:1005500000014FF0010200F045FCA74A4FF069038B
:10056000136042E09D4B1968A24B1A684FF00103DB
:1005700003FA02F39BB208464FF000014FF000026D
:1005800000F030FC9C4A4FF067031360924B1A68EE
:10059000984B1B6810461946FFF774FE0346974AAE
:1005A000137022E08D4B1968924B1A684FF00103CB
:1005B00003FA02F39BB20846194600F051FC8E4A3A
:1005C0004FF07303136010E0844B1968894B1A686D
:1005D0004FF0010303FA02F39BB20846194600F0FC
:1005E00043FC854A4FF0720313607B4B1B689BB240
:1005F00003F141039BB28248194600F091FC7D4B08
:100600001B68092B0ADC7B4B1B689BB203F1300390
:100610009BB27B48194600F083FC09E0754B1B68D0
:100620009BB203F157039BB27548194600F078FC62
:10063000714B1B689BB27248194600F071FC704800
:100640004FF0200100F06CFC6C4B1B78092B09D893
:100650006A4B1B7803F130039BB26948194600F0DE
:100660005FFC08E0654B1B7803F157039BB26448BD
:10067000194600F055FC63484FF001015F4A00F055
:10068000D3FD604800F086FD5E4B1B6803F002035B
:10069000002BF9D05C4B1B684FEA03534FEA13530E
:1006A0007B6057484FF0200100F03AFC7B68B3F5BF
:1006B0007A7F12DD7968554B83FB01234FEAA31241
:1006C0004FEAE173C3EB02039BB203F130039BB229
:1006D0004B48194600F024FC04E049484FF0200143
:1006E00000F01EFC7968494B83FB01234FEAA312FB
:1006F0004FEAE173C3EB0203DBB219460B464FEA44
:1007000083024FEA4213C2EB03030B444FEAC303D5
:10071000C3F100027B6813447B6079683C4B83FB28
:1007200001234FEA63124FEAE173C3EB02039BB26A
:1007300003F130039BB23248194600F0F1FB7968AF
:10074000334B83FB01234FEA63124FEAE173C3EBA0
:100750000203DBB24FEA83034FEA830213444FEAFA
:1007600083021344C3F100037A6813447B60796801
:10077000284B83FB01234FEAA3024FEAE173C3EB4B
:1007800002039BB203F130039BB21D48194600F0EF
:10079000C7FB79681F4B83FB01234FEAA3024FEA93
:1007A000E173C3EB0203DBB24FEA43024FEA820379
:1007B0001344C3F100037A6813447B607B689BB2E7
:1007C00003F130039BB20E48194600F0A9FB07F174
:1007D0000807BD4680BDC0461C0000200000002068
:1007E00000080140000C01400010014000140140CD
:1007F0000018014018000020140000200400002010
:1008000000380140002401404C240140D34D6210C7
:100810001F85EB516766666680B583B000AF4FF009
:1008200000037B604FF00003BB60FFF781FCFFF724
:10083000D7FCFFF7A3FCFFF7E3FC42484FF0400171
:1008400000F01CFB4FF000037B6053E07B689BB221
:1008500003F141039BB23C48194600F061FB7B6801
:10086000042B20D801A252F823F0C04681080008CA
:10087000890800089108000899080008A1080008E4
:10088000324B1B68BB600EE0314B1B68BB600AE05B
:10089000304B1B68BB6006E02F4B1B68BB6002E05F
:1008A0002E4B1B68BB604FF00F033B6016E04FF010
:1008B00001023B6802FA03F2BB6802EA03023B68EA
:1008C00042FA03F39BB203F130039BB21E48194670
:1008D00000F026FB3B6803F1FF333B603B68002BD5
:1008E000E5DA19484FF0200100F01AFB7B6803F1AC
:1008F00001037B607B68042BA8DD134B1B6803F0AE
:100900002003002B0BD0104800F012FB03461846C2
:10091000FFF7EEFC0B484FF0800100F0AFFA0A48F9
:100920004FF00D0100F0FCFA4FF000033B6003E0D4
:100930003B6803F101033B603A68094B9A42F7DDDB
:100940007BE7C04600100140003801400808014024
:10095000080C01400810014008140140081801402B
:100960007F380100FEE7C0467047C04604281DD806
:10097000DFE800F003080D1217000D4A136843F476
:10098000801312E00A4A136843F400230DE0084A7A
:10099000136843F4802308E0064A136843F40033E5
:1009A00003E0044A136843F4803313607047C04681
:1009B000001002400810024004281DD8DFE800F0B3
:1009C00003080D1217000D4A136843F4805312E018
:1009D0000A4A136843F400630DE0084A136843F4BD
:1009E000806308E0064A136843F4007303E0044A96
:1009F000136843F4807313607047C04600100240D0
:100A00000810024004281DD8DFE800F003080D128A
:100A100017000D4A136823F4805312E00A4A136842
:100A200023F400630DE0084A136823F4806308E0B0
:100A3000064A136823F4007303E0044A136823F49E
:100A4000807313607047C0460010024008100240D7
:100A5000042804D8DFE800F0060A0E1216004FF052
:100A6000FF3013E00A4B1B681B090DE0084B1B68A5
:100A7000DB0809E0064B1B689B0805E0054B1B687B
:100A80005B0801E0034B1B6803F001007047C046A0
:100A90000010024008100240024A136843F40003A9
:100AA0001360704708100240024B1868C00900F03C
:100AB0000100704708100240042821D8DFE800F048
:100AC00003090F151B000F4A136813F0007FFBD0BA
:100AD00016E00C4A136813F4003FFBD010E0094AFB
:100AE000136813F0020FFBD00AE0074A136813F0F3
:100AF000020FFBD004E0054A136813F0020FFBD08D
:100B00007047C046001002402010024024100240EE
:100B1000042817D8DFE800F003080D0F11000A4A77
:100B2000136843F080730CE0074A136843F4803382
:100B300007E0054A02E0054A00E0054A136843F071
:100B4000010313607047C0460010024020100240AD
:100B500024100240042817D8DFE800F003080D0F26
:100B600011000A4A136823F080730CE0074A1368E7
:100B700023F4803307E0054A02E0054A00E0054A15
:100B8000136823F0010313607047C0460010024051
:100B90002010024024100240024A136843F400234C
:100BA0001360704700100240024A136823F40023C8
:100BB0001360704700100240012802D003280AD1B8
:100BC00004E0054A136843F4802303E0034A1368F2
:100BD00043F00403136070470010024020100240ED
:100BE000012802D003280AD104E0054A136823F43F
:100BF000802303E0034A136823F004031360704763
:100C00000010024020100240036819430160704741
:100C1000036823EA010303607047C0460368194371
:100C2000016070470368194301607047034A136805
:100C300023F00303184310607047C04604100240BD
:100C4000034A136823F4701343EA80431360704728
:100C500004100240034A136823F4803343EA00433C
:100C60001360704704100240034A136823F40033F2
:100C700043EA40431360704704100240034A13687C
:100C800003F4404343EA803313607047041002408A
:100C9000034A136803F4605343EAC02313607047A8
:100CA00004100240034A136803F4E06343EA00239C
:100CB0001360704704100240034A136803F0F00306
:100CC00043EA00131360704704100240024B186897
:100CD00000F00C00800870470410024010B502209C
:100CE000224CFFF715FF0220FFF7E6FE23680120E4
:100CF00023F003032360FFF70BFF0120FFF7DCFE67
:100D00002368022023F0030343F0010323602368D8
:100D100003F0F003236023684FF44043236023680B
:100D200003F4E06343F480632360236803F46053B7
:100D3000236000F0EDFA2368002023F4701343F4DD
:100D4000E0132360236843F480332360236823F493
:100D500000332360FFF7DCFE0020FFF7ADFE2368C1
:100D600023F0030343F00203236010BD041002408C
:100D700010B502201A4CFFF7CBFE0220FFF79CFEB5
:100D80002368022023F003032360236803F0F003A9
:100D9000236023684FF440432360236803F4E06337
:100DA00043F480632360236803F46053236000F0FE
:100DB000AFFA2368002023F4701343F46013236018
:100DC000236823F480332360FFF7A2FE0020FFF79F
:100DD00073FE236823F0030343F00203236010BD76
:100DE00004100240F0B5C9B284B0D2B29BB205681B
:100DF000064644680391029201934FF0000C0020D4
:100E0000019A42FA0CF313F0010F1ED01FFA8CF76F
:100E1000072F8BBFA0F120032A462246014688BF38
:100E200099B20F238B4022EA0302029B00928A1C94
:100E300013FA02F2039B13FA01F1009B0A431A43CF
:100E4000072F98BF154688BF14460CF1010C031DEF
:100E5000BCF1100F98B2D3D13560746004B0F0BD0E
:100E600089B201617047C04689B281827047C0462D
:100E7000836889B2194008467047C046836889B2C2
:100E800001EA03038B420CBF838201617047C046B5
:100E9000806880B27047C04689B2C1607047C04662
:100EA000034B0901B3FBF1F39BB283607047C0466B
:100EB0000020AA4408290BBFC368C36823F48053E9
:100EC00043F48053C3607047036923F4405343EAFB
:100ED000013303617047C046C36823F4C06343EA2B
:100EE0004123C3607047C046C36823F00C0343EA44
:100EF0008103C3607047C046436923F4407343EAEB
:100F0000810343617047C046C36843F40053C36024
:100F10007047C046C36823F40053C3607047C0469F
:100F2000C905C90D4160036813F0800FFBD07047FD
:100F3000036813F0200FFBD04068C005C00D704758
:100F40007047C0467047C0467047C046436843F488
:100F5000000343607047C046436823F400034360C6
:100F60007047C046436843F4800343607047C046FF
:100F7000436823F4800343607047C046436843F4EA
:100F8000006343607047C046436823F400634360D6
:100F90007047C046436843F4805343607047C0467F
:100FA000436823F4805343607047C046436843F46A
:100FB000806343607047C046436823F480634360A6
:100FC0007047C046436843F4007343607047C046AF
:100FD0004368C9B223F01F03112998BF0B43436034
:100FE000436823F4007343607047C046436843F48A
:100FF000807343607047C046436823F48073436046
:101000007047C046436843F0800343607047C04662
:10101000436823F0800343607047C046436843F051
:10102000400343607047C046436823F04003436079
:101030007047C046436843F0200343607047C04692
:10104000436823F0200343607047C046836843F43D
:10105000000383607047C046836823F40003836005
:101060007047C046836800F1080243F48003836040
:10107000136813F4800FFBD17047C046836800F1FA
:10108000080243F400138360136813F4001FFBD1BC
:101090007047C0468368C9B223F46023072998BF0C
:1010A00043EA41438360836843F48013836070475D
:1010B000836823F4801383607047C0468368C9B295
:1010C00023F4E043072998BF43EA01338360836830
:1010D00043F4004383607047836823F400438360D4
:1010E0007047C046836843F4006383607047C0461E
:1010F000836823F4006383607047C046074B084A47
:10110000984214BF00230123904208BF43F001031B
:101110001BB1836843F4807383607047003C0140D7
:1011200000240140074B084A984214BF00230123C2
:10113000904208BF43F001031BB1836823F480731E
:1011400083607047003C014000240140836800F147
:10115000080243F008038360136813F0080FFBD103
:101160007047C046836800F1080243F004038360BF
:10117000136813F0040FFBD17047C046836843F037
:10118000020383607047C046836823F002038360D4
:101190007047C046836843F0010383607047C046D0
:1011A000836823F0010383607047C046CBB2092BEC
:1011B0005FFA82FC4FEA43020AD8D2180723934011
:1011C0000CFA02F2016921EA0301114301610AE00C
:1011D000D2181E3A072393400CFA02F2C16821EAA2
:1011E00003011143C1607047C9B24FF0000C0022E7
:1011F00011FA02F303321E2A4CEA030CF8D1C0F8AC
:1012000010C0002211FA02F30332182A4CEA030C30
:10121000F8D1C0F80CC070470905090D416270474C
:101220000905090D81627047F0B5CFB281B0102F6A
:10123000009031D8A2F10C000024002600254FF0C8
:10124000010C00211FE0BCF1060F02D8037B8B408C
:101250001D43ACF10703DBB2052B04D88379A1F160
:101260001E0293401E43ACF10D03DBB2032B04D8E6
:101270000378A1F13C0293401C430CF101035FFA97
:1012800083FC01300531BC45DDD9009A7B1E44EA60
:101290000353D3621663556301B0F0BD30B5054604
:1012A000C8B20428144612D800214FF0000C0022C6
:1012B00006E014F80C300CF1010C93400532194390
:1012C0008445F6D10CF1FF3341EA0353AB6330BDE3
:1012D000024A136843F01003136070470020024075
:1012E000024A136823F01003136070470020024085
:1012F000024A136843F0080313607047002002405D
:10130000024A136823F0080313607047002002406C
:10131000034A136823F00703184310607047C04660
:041320000020024067
:101324000008014010000000000000000000000060
:08133400000000002000000091
:0400000508000000EF
:00000001FF
