:020000040800F2
:1000000000080020B90B0008FF0B0008FD0B0008DA
:10001000FD0B0008FD0B0008FD0B000800000000B0
:10002000000000000000000000000000FF0B0008BE
:10003000FF0B000800000000FF0B0008FF0B00088A
:10004000FF0B0008FF0B0008FF0B0008FF0B000868
:10005000FF0B0008FF0B0008FF0B0008FF0B000858
:10006000FF0B0008FF0B0008FF0B0008FF0B000848
:10007000FF0B0008FF0B0008FF0B0008FF0B000838
:10008000FF0B0008FF0B0008FF0B0008FF0B000828
:10009000FF0B0008FF0B0008FF0B0008FF0B000818
:1000A000FF0B0008FF0B0008FF0B0008FF0B000808
:1000B000FF0B0008FF0B0008FF0B0008FF0B0008F8
:1000C000FF0B0008FF0B0008FF0B0008FF0B0008E8
:1000D000FF0B0008FF0B0008FF0B0008FF0B0008D8
:1000E000FF0B0008FF0B0008FF0B0008FF0B0008C8
:1000F000FF0B0008FF0B0008FF0B0008FF0B0008B8
:10010000FF0B0008FF0B0008FF0B0008FF0B0008A7
:10011000FF0B0008FF0B0008FF0B0008FF0B000897
:10012000FF0B0008FF0B0008FF0B0008FF0B000887
:1001300000000000FF0B0008FF0B0008FF0B000889
:10014000FF0B0008FF0B0008FF0B0008FF0B000867
:1001500080B500AF00F0DCFF41F21800C4F20200ED
:100160004FF0040100F0B2FE41F21800C4F20200A8
:100170004FF0080100F0AAFE41F21800C4F202009C
:100180004FF0100100F0A2FE41F21800C4F202008C
:100190004FF0200100F09AFE41F21800C4F2020074
:1001A0004FF0400100F092FE41F21800C4F202004C
:1001B0004FF4804100F08AFE80BD00BF80B500AFE3
:1001C0004FF40060C4F201004FF003014FF002024F
:1001D0004FF4007301F06EF84FF46050C4F2010068
:1001E0004FF4164101F0B6F84FF46050C4F201002C
:1001F0004FF0080101F0C0F84FF46050C4F2010064
:100200004FF0000101F0C1F84FF46050C4F201005A
:100210004FF00C0101F0C5F84FF46050C4F201003A
:100220004FF0000101F0B7F84FF46050C4F2010044
:100230004FF0000101F0BBF84FF46050C4F2010030
:1002400001F0BBF880BD00BF80B500AF4FF4805017
:10025000C4F201004FF002014FF000024FF0C00362
:1002600001F028F880BD00BF80B582B000AF41F238
:100270001800C4F202004FF4007100F027FE4FF4A2
:100280001050C4F2010001F0C6F94FF41050C4F24E
:10029000010001F00AF94FF41050C4F2010001F01E
:1002A000B0F94FF41050C4F2010001F0CAF84FF455
:1002B0001050C4F2010001F048F94FF41050C4F29C
:1002C000010001F05EF94FF41050C4F2010001F09A
:1002D0000FF94FF41050C4F201004FF0030101F088
:1002E000BCF94FF41050C4F2010001F08FF94FF047
:1002F00000037B6003E07B6803F101037B607A68A5
:1003000043F67F03C0F201039A42F4DD4FF410502C
:10031000C4F2010001F05AF94FF41050C4F2010088
:1003200001F05FF907F10807BD4680BD80B483B0D6
:1003300000AF786039607B68012B09D0022B10D0A8
:10034000002B1CD13B68072B14DC3B68DBB218E0A8
:100350003B68012B10DC3B68DBB203F10803DBB226
:100360000FE03B68052B09DC3B68DBB203F10A03B5
:10037000DBB206E000BF02E000BF00E000BF4FF0CC
:100380001003184607F10C07BD4680BC704700BF3C
:1003900080B584B000AF78604FF00003FB607B68ED
:1003A000A3F13003432B00F2058201A151F823F0A1
:1003B0006B0500087B0500088B0500089B050008FD
:1003C000AB050008BB050008CB050008DB050008ED
:1003D000EB050008FB050008B5070008B507000895
:1003E000B5070008B5070008B5070008B5070008FD
:1003F000B5070008C1040008E3040008050500086B
:100400002705000849050008B5070008B5070008DA
:10041000B5070008B5070008B5070008B5070008CC
:10042000B5070008B5070008B5070008B5070008BC
:10043000B5070008B5070008B5070008B5070008AC
:10044000B5070008B5070008B5070008B50700089C
:10045000B5070008B5070008B5070008B50700088C
:10046000B5070008B5070008B5070008B50700087C
:10047000B50700080B0600081B0600082B0600083D
:100480003B0600084B0600085B060008E306000870
:10049000B5070008A7060008B5070008B50700085B
:1004A000B5070008B5070008B50700086B06000887
:1004B000B5070008B50700087F07000849070008CE
:1004C00040F22003C2F200034FF000021A6040F233
:1004D0000003C2F200034FF40062C4F201021A608A
:1004E00068E140F22003C2F200034FF001021A60FB
:1004F00040F20003C2F200034FF44062C4F2010272
:100500001A6057E140F22003C2F200034FF00202EA
:100510001A6040F20003C2F200034FF48052C4F2AA
:1005200001021A6046E140F22003C2F200034FF0DC
:1005300003021A6040F20003C2F200034FF4A0521B
:10054000C4F201021A6035E140F22003C2F2000356
:100550004FF004021A6040F20003C2F200034FF4AD
:10056000C052C4F201021A6024E140F22403C2F234
:1005700000034FF000021A601CE140F22403C2F2B3
:1005800000034FF001021A6014E140F22403C2F2AA
:1005900000034FF002021A600CE140F22403C2F2A1
:1005A00000034FF003021A6004E140F22403C2F298
:1005B00000034FF004021A60FCE040F22403C2F290
:1005C00000034FF005021A60F4E040F22403C2F287
:1005D00000034FF006021A60ECE040F22403C2F27E
:1005E00000034FF007021A60E4E040F22403C2F275
:1005F00000034FF008021A60DCE040F22403C2F26C
:1006000000034FF009021A60D4E040F22403C2F262
:1006100000034FF00A021A60CCE040F22403C2F259
:1006200000034FF00B021A60C4E040F22403C2F250
:1006300000034FF00C021A60BCE040F22403C2F247
:1006400000034FF00D021A60B4E040F22403C2F23E
:1006500000034FF00E021A60ACE040F22403C2F235
:1006600000034FF00F021A60A4E040F20003C2F250
:1006700000031A6840F22403C2F200031B684FF023
:10068000010101FA03F39BB210464FF002014FF053
:10069000000200F00FFE40F20403C2F200034FF02C
:1006A0006F021A6086E040F20003C2F200031A688B
:1006B00040F22403C2F200031B684FF0010101FA6B
:1006C00003F39BB210464FF000014FF0010200F01F
:1006D000F1FD40F20403C2F200034FF069021A6018
:1006E00068E040F20003C2F200031A6840F22403FB
:1006F000C2F200031B684FF0010101FA03F39BB241
:1007000010464FF000014FF0000200F0D3FD40F220
:100710000403C2F200034FF067021A6040F22003A4
:10072000C2F200031A6840F22403C2F200031B68FD
:1007300010461946FFF7FAFD03461A4640F2080331
:10074000C2F200031A7035E040F20003C2F2000367
:100750001A6840F22403C2F200031B684FF0010143
:1007600001FA03F39BB21046194600F0DAFD40F29D
:100770000403C2F200034FF073021A601AE040F261
:100780000003C2F200031A6840F22403C2F200031D
:100790001B684FF0010101FA03F39BB210461946A2
:1007A00000F0C1FD40F20403C2F200034FF07202F8
:1007B0001A6000BF40F22003C2F200031B689BB224
:1007C00003F141039BB24FF46050C4F2010019469B
:1007D00000F0FDFD40F22403C2F200031B68092B68
:1007E00010DC40F22403C2F200031B689BB203F149
:1007F00030039BB24FF46050C4F20100194600F080
:10080000E6FD0FE040F22403C2F200031B689BB236
:1008100003F157039BB24FF46050C4F20100194634
:1008200000F0D5FD40F20403C2F200031B689BB246
:100830004FF46050C4F20100194600F0C8FD4FF4B7
:100840006050C4F201004FF0200100F0C0FD40F202
:100850000803C2F200031B78092B0FD840F20803EB
:10086000C2F200031B7803F130039BB24FF46050D7
:10087000C4F20100194600F0AAFD0EE040F20803A0
:10088000C2F200031B7803F157039BB24FF4605090
:10089000C4F20100194600F09AFD4FF41050C4F262
:1008A00001004FF0010140F20802C2F2000200F024
:1008B000F1FE4FF41050C4F2010000F0A7FE00BF9B
:1008C0004FF41053C4F201031B6803F00203002B22
:1008D000F6D042F24C43C4F201031B684FEA0353C3
:1008E0004FEA1353FB604FF46050C4F201004FF025
:1008F000200100F06CFDFB68B3F57A7F17DDFA6824
:1009000044F6D353C1F2620383FB02134FEAA311EF
:100910004FEAE273CB1A9BB203F130039BB24FF460
:100920006050C4F20100194600F051FD07E04FF499
:100930006050C4F201004FF0200100F048FDFA6859
:1009400044F6D353C1F2620383FB02134FEAA311AF
:100950004FEAE273CB1ADBB21A464FF61843CFF6D2
:10096000FF7303FB02F3FA68D318FB60FA6848F2DE
:100970001F53C5F2EB1383FB02134FEA63114FEAD7
:10098000E273CB1A9BB203F130039BB24FF4605079
:10099000C4F20100194600F01AFDFA6848F21F532C
:1009A000C5F2EB1383FB02134FEA63114FEAE273C4
:1009B000CB1ADBB26FF0630202FB03F3FA68D318C1
:1009C000FB60FA6846F26763C6F2666383FB021354
:1009D0004FEAA3014FEAE273CB1A9BB203F1300353
:1009E0009BB24FF46050C4F20100194600F0EFFCD6
:1009F000FA6846F26763C6F2666383FB02134FEA46
:100A0000A3014FEAE273CB1ADBB26FF0090202FBDB
:100A100003F3FA68D318FB60FB689BB203F1300361
:100A20009BB24FF46050C4F20100194600F0CFFCB5
:100A300007F11007BD4680BD80B584B000AF4FF010
:100A40000003BB604FF000037B60FFF781FBFFF703
:100A5000FBFBFFF7B3FBFFF707FC4FF48050C4F23A
:100A600001004FF0400100F064FC4FF00003BB6058
:100A70006BE0BB689BB203F141039BB24FF4605043
:100A8000C4F20100194600F0A2FCBB68042B30D868
:100A900001A252F823F000BFAD0A0008BB0A00080B
:100AA000C90A0008D70A0008E50A000840F608034A
:100AB000C4F201031B687B601BE040F60843C4F2EC
:100AC00001031B687B6014E041F20803C4F20103D8
:100AD0001B687B600DE041F20843C4F201031B6810
:100AE0007B6006E041F60803C4F201031B687B60EB
:100AF00000BF4FF00F03FB6018E04FF00102FB68EE
:100B000002FA03F27B681A40FB6842FA03F39BB2D5
:100B100003F130039BB24FF46050C4F20100194658
:100B200000F055FCFB6803F1FF33FB60FB68002B12
:100B3000E3DA4FF46050C4F201004FF0200100F0FE
:100B400046FCBB6803F10103BB60BB68042B90DD6E
:100B50004FF46053C4F201031B6803F02003002B21
:100B600011D04FF46050C4F2010000F034FC034691
:100B70001846FFF70DFC4FF48050C4F201004FF00F
:100B8000800100F0D6FB4FF46050C4F201004FF03A
:100B90000D0100F01CFC4FF00003FB6003E0FB685C
:100BA00003F10103FB60FA6843F67F03C0F201031F
:100BB0009A42F4DD51E700BF0B4B83F308880B4AE0
:100BC0000B4B0C4903E052F8040B43F8040B8B4227
:100BD000F9D302E043F8042B01E0074900228B42DD
:100BE000F8D3FFF729BF00BF0008002060190008F4
:100BF000000000202000002028000020FEE77047B1
:100C0000024B1A6822F0F0021A607047041002408A
:100C1000024B1A6822F460521A60704704100240B6
:100C200004281ED8DFE800F003080D1218000D4B51
:100C30001A6842F480120DE00A4B1A6842F400224E
:100C400008E0084B1A6842F4802203E0054B1A685A
:100C500042F400321A607047024B1A6842F4803244
:100C60001A6070470810024004281ED8DFE800F020
:100C700003080D1218000D4B1A6842F480520DE063
:100C80000A4B1A6842F4006208E0084B1A6842F402
:100C9000806203E0054B1A6842F400721A607047E4
:100CA000024B1A6842F480721A60704708100240C2
:100CB00004281ED8DFE800F003080D1218000D4BC1
:100CC0001A6822F480520DE00A4B1A6822F400627E
:100CD00008E0084B1A6822F4806203E0054B1A68AA
:100CE00022F400721A607047024B1A6822F4807274
:100CF0001A6070470810024004281DD8DFE800F091
:100D000003080D1217000E4B1868C0F3001070474F
:100D10000B4B1868C0F3C0007047094B1868C0F34C
:100D200080007047064B1868C0F340007047044BC2
:100D3000186800F0010070474FF0FF30704700BFA7
:100D400008100240024B1A6842F400021A60704711
:100D500008100240024B1868C0F3C010704700BF73
:100D600008100240042821D8DFE800F003090F151D
:100D70001B000F4B1A6812F0007FFBD070470C4B22
:100D80001A6812F4003FFBD07047094B1A6812F042
:100D9000020FFBD07047074B1A6812F0020FFBD00E
:100DA0007047054B1A6812F0020FFBD0704700BF66
:100DB00000100240201002402410024004281BD8DA
:100DC000DFE800F003080D0F15000C4B1A6842F025
:100DD00080720AE0094B1A6842F4803205E0074B42
:100DE00000E0074B1A6842F001021A607047054B99
:100DF0001A6842F001021A60704700BF00100240FA
:100E0000201002402410024004281BD8DFE800F024
:100E100003080D0F15000C4B1A6822F080720AE0CF
:100E2000094B1A6822F4803205E0074B00E0074BBB
:100E30001A6822F001021A607047054B1A6822F006
:100E400001021A60704700BF0010024020100240EB
:100E500024100240024B1A6842F400221A607047C4
:100E600000100240024B1A6822F400221A607047F8
:100E700000100240012802D003280BD105E0064BE8
:100E80001A6842F480221A607047044B1A6842F0D4
:100E900004021A60704700BF001002402010024098
:100EA000012802D003280BD105E0064B1A6822F472
:100EB00080221A607047044B1A6822F004021A60FC
:100EC000704700BF0010024020100240036841EA52
:100ED000030303607047036823EA0103036070475C
:100EE000036841EA030303607047036823EA0103D0
:100EF00003607047034B1A6822F0030240EA0202C3
:100F00001A60704704100240034B1A6822F47012F2
:100F100042EA80421A60704704100240034B1A688C
:100F200022F4803242EA00421A6070470410024004
:100F3000034B1A6822F4003242EA40421A607047BA
:100F400004100240034B1A6822F4404242EA803205
:100F50001A60704704100240034B1A6822F4605272
:100F600042EAC0221A60704704100240034B1A681C
:100F700022F4E06242EA00221A6070470410024044
:100F8000034B1A6822F0F00242EA00121A6070471E
:100F900004100240034B1A6822F4800242EA805295
:100FA0001A60704704100240024B186800F00C00F1
:100FB000800870470410024008B50220FFF7FEFECB
:100FC0000220FFF7CFFE0020FFF794FFFFF718FE87
:100FD0000320FFF7B7FF0420FFF7C8FFFFF718FE55
:100FE000022000F0CDFB0E20FFF78EFF0020FFF760
:100FF00095FF0020FFF7E2FE0020FFF7B3FE02207E
:10100000FFF778FF034A044B1A60044A044B1A6046
:1010100008BD00BF0048E801180000200090D00380
:101020001C00002008B50220FFF7C8FE0220FFF7D1
:1010300099FE0020FFF75EFFFFF7E2FD0320FFF7B8
:1010400081FF0420FFF792FFFFF7E2FD0120FFF789
:10105000A1FF012000F094FB0A20FFF755FF0020BC
:10106000FFF75CFF0020FFF7A9FE0020FFF77AFEE4
:101070000220FFF73FFF034A034B1A60034A044B69
:101080001A6008BD00366E0118000020006CDC02FA
:101090001C00002008B50220FFF790FE0220FFF799
:1010A00061FE0020FFF726FF0120FFF787FE0120E9
:1010B000FFF758FE0120FFF71DFFFFF7A1FD0020FD
:1010C000FFF740FF0020FFF751FFFFF7A1FD0020D1
:1010D00000F056FB0120FFF717FF0120FFF71EFF6E
:1010E0000020FFF725FF0020FFF768FE0020FFF734
:1010F00039FE0220FFF7FEFE024B034A1360034A4B
:10110000136008BD00366E01180000201C0000208E
:1011100008B50220FFF752FE0220FFF723FE002051
:10112000FFF7E8FE0120FFF749FE0120FFF71AFE56
:101130000120FFF7DFFEFFF763FD0320FFF702FF4B
:101140000420FFF713FFFFF763FD022000F018FBF8
:101150000720FFF7D9FE0120FFF7E0FE0020FFF790
:10116000E7FE0020FFF72AFE0020FFF7FBFD02202C
:10117000FFF7C0FE034A044B1A60044A044B1A608E
:1011800008BD00BF005125021800002000A24A043B
:101190001C00002008B50220FFF710FE0220FFF718
:1011A000E1FD0020FFF7A6FE0120FFF707FE01206A
:1011B000FFF7D8FD0120FFF79DFEFFF721FD02207C
:1011C000FFF7C0FE0420FFF7D1FEFFF721FD02204C
:1011D00000F0D6FA0420FFF797FE0120FFF79EFEED
:1011E0000020FFF7A5FE0020FFF7E8FD0020FFF735
:1011F000B9FD0220FFF77EFE034A044B1A60044A41
:10120000044B1A6008BD00BF0051250218000020E1
:1012100000A24A041C00002008B50220FFF7CEFD02
:101220000220FFF79FFD0020FFF764FE0120FFF77B
:10123000C5FD0120FFF796FD0120FFF75BFEFFF7DC
:10124000DFFC0220FFF77EFE0420FFF78FFEFFF792
:10125000DFFC022000F094FA0720FFF755FE012082
:10126000FFF75CFE0120FFF763FE0020FFF7A6FDFD
:101270000020FFF777FD0220FFF73CFE034A044BF6
:101280001A60044A044B1A6008BD00BF00512502D1
:101290001800002000A24A041C000020044B1A6819
:1012A00042F480321A601A6822F480321A60704761
:1012B000201002402DE9F04F0768002546682C46B3
:1012C0004FF00F0B43FA04FC1CF0010F20D01FFA63
:1012D00084F8B8F1070F05D9A5F1200C1FFA8CFC92
:1012E000B14601E0AC46B9460BFA0CFA29EA0A0904
:1012F0000CF1020A02FA0AFA01FA0CFC4AEA0C0C96
:101300004CEA0909B8F1070F98BF4F4688BF4E460F
:1013100001340435102CADB2D4D107604660BDE86D
:10132000F08F0161704781827047806801EA000098
:101330007047C3684B40C3607047806880B2704795
:10134000C160704741F48033836181618361836947
:1013500083697047054A064B90421B6804BF054BE2
:101360001B68B3FBF1F38360704700BF0038014096
:10137000180000201C000020C36808290CBF23F4BB
:10138000805343F48053C3607047036923F4405390
:101390000B4303617047C36823F4C0630B43C3600E
:1013A0007047C36823F00C030B43C3607047436965
:1013B00023F440730B4343617047C36843F4005305
:1013C000C3607047C36823F40053C3607047C90506
:1013D000C90D416070474068C005C00D7047036883
:1013E00013F0800FFBD07047036813F0200FFBD081
:1013F000704738B50D46ED050446ED0DFFF7EFFFDC
:10140000656038BD10B50446FFF7EEFF6068C005A3
:10141000C00D10BD704770477047436843F4000328
:1014200043607047436823F4000343607047436898
:1014300043F4800343607047436823F480034360B0
:101440007047436843F4006343607047436823F484
:10145000006343607047436843F4805343607047C0
:10146000436823F4805343607047436843F48063C8
:1014700043607047436823F4806343607047436868
:1014800043F40073436070474368112923F01F033E
:1014900098BF0B434360436823F400734360704775
:1014A000436843F4807343607047436823F4807358
:1014B00043607047436843F080034360704743686C
:1014C00023F0800343607047436843F04003436068
:1014D0007047436823F0400343607047436843F01C
:1014E000200343607047436823F020034360704744
:1014F000836843F4000383607047836823F4000328
:1015000083607047836800F1080243F480038360BE
:10151000136813F4800FFBD17047836800F1080251
:1015200043F400138360136813F4001FFBD170476A
:101530008368072923F4602398BF43EA414383600B
:10154000836843F4801383607047836823F48013B7
:10155000836070478368072923F4E04398BF43EA18
:1015600001338360836843F400438360704783687A
:1015700023F4004383607047836843F4006383600F
:101580007047836823F4006383607047054B98427B
:1015900002D0054B984203D1836843F48073836083
:1015A000704700BF003C014000240140054B9842B9
:1015B00002D0054B984203D1836823F48073836083
:1015C000704700BF003C014000240140836800F1E7
:1015D000080243F008038360136813F0080FFBD17F
:1015E0007047836800F1080243F0040383601368C6
:1015F00013F0040FFBD17047836843F0020383604C
:101600007047836823F0020383607047836843F068
:10161000010383607047836823F001038360704790
:10162000092910B54FEA41030BD8591807238B40FD
:1016300012FA01F1046924EA030343EA010101619A
:1016400010BD59181E3907238B408A40C46824EA0C
:10165000030343EA0201C16010BD10B50022134626
:1016600011FA02F403321E2A43EA0403F8D103619B
:101670001E3A11FA02F40332182A43EA0403F8D19D
:10168000C36010BD0905090D416270470905090DC8
:101690008162704710292DE9F04339D800236FF09B
:1016A0003B0501241E461F469C4629E0062C07D810
:1016B00012F8039005F13C0809FA08F846EA080612
:1016C000A4F107085FFA88F8B8F1050F07D812F8F7
:1016D000039005F11E0809FA08F847EA0807A4F183
:1016E0000D085FFA88F8B8F1030F05D812F80380E7
:1016F00008FA05F84CEA080C0134E4B20133053568
:101700008C42D3D901394CEA0151C1620763466367
:10171000BDE8F083042970B510D8002301251C46CC
:1017200006E012F8016B01359E40EDB234430533FB
:101730008D42F6D9013944EA0154846370BD00003A
:10174000024B1A6842F010021A60704700200240F3
:10175000024B1A6822F010021A6070470020024003
:10176000024B1A6842F008021A60704700200240DB
:10177000024B1A6822F008021A60704700200240EB
:10178000034B1A6822F0070240EA02021A6070470F
:1017900000200240024B034A1A60034A1A60704755
:1017A0000420024023016745AB89EFCD024B1A6844
:1017B00042F080021A60704710200240024B1A6803
:1017C00042F004021A6070470C200240024B1A6873
:1017D00042F020021A6070470C200240024B1A6847
:1017E00042F010021A6070470C200240024B1A6847
:1017F00022F001021A6070470C20024010B5FFF77A
:10180000DDFFFFF7E3FFFFF7E9FFBDE81040FFF75B
:10181000EDBF0000024B034A1A60034A1A6070478A
:101820000820024023016745AB89EFCD024B1A68BF
:1018300012F0010FFBD170470C20024070B50A4D29
:1018400004460E46FFF7F2FF2B6843F001032B60BE
:101850002680360CFFF7EAFF6680FFF7E7FF2B686C
:1018600023F001032B6070BD1020024070B5084DBD
:1018700004460E46FFF7DAFF2B6843F001032B60A6
:101880002680FFF7D3FF2B6823F001032B6070BD88
:101890001020024038B50A4C0546FFF7C7FF236801
:1018A00043F002032360074B1D60236843F04003AD
:1018B0002360FFF7BBFF236823F00203236038BDDA
:1018C000102002401420024010B5094CFFF7AEFF73
:1018D000236843F004032360236843F0400323603C
:1018E000FFF7A4FF236823F00403236010BD00BFAB
:1018F0001020024010B50C4CFFF798FF236813F43A
:10190000007F01D1FFF786FF236843F020032360A7
:10191000236843F040032360FFF788FF236823F028
:101920002003236010BD00BF1020024070B50B4D96
:1019300004460E46FFF77AFF2B6813F4007F01D1AF
:10194000FFF768FF2B6843F010032B602680FFF73A
:101950006DFF2B6823F010032B6070BD1020024038
:1019600000080140200000001000000000000000FE
:10197000000000000000000000127A0000127A004F
:0400000508000000EF
:00000001FF
